:100000003FC0D4C1ACC157C056C055C054C053C086
:1000100052C05BC150C04FC04EC04DC04CC04BC061
:100020004AC049C048C00000000037003400310019
:1000300000000000380035003200000000003600EB
:100040003300300004040404040404040202020225
:10005000020203030303030301020408102040808B
:100060000102040810200102040810200000000012
:100070000000000000030406000000000000000073
:1000800011241FBECFE5D4E0DEBFCDBF20E0A8EB3A
:10009000B0E001C01D92A03DB207E1F710E0A0E67C
:1000A000B0E0E8EBF6E002C005900D92A83BB10786
:1000B000D9F7A3D1FFC2A4CF843039F0863049F0FC
:1000C000833051F48FB58F7702C08FB58F7D8FBD90
:1000D000089585B58F7D85BD0895CF93DF93282F33
:1000E00030E0F901E459FF4F8491F901E85AFF4FDC
:1000F000D491F901EC5BFF4FC491CC2389F08111BD
:10010000DBDFEC2FF0E0EE0FFF1FE65CFF4FA59169
:10011000B491EC91ED2381E090E021F480E002C005
:1001200080E090E0DF91CF9108951F93CF93DF930C
:10013000282F30E0F901E459FF4F8491F901E85A82
:10014000FF4FD491F901EC5BFF4FC491CC23C1F078
:10015000162F8111B1DFEC2FF0E0EE0FFF1FE05DF5
:10016000FF4FA591B4918FB7F894111105C09C91E0
:10017000ED2FE095E92302C0EC91ED2BEC938FBFBE
:10018000DF91CF911F910895CF93DF9390E0FC0111
:10019000E85AFF4F2491FC01EC5BFF4F84918823C8
:1001A00061F190E0880F991FFC01EA5DFF4FC59156
:1001B000D491FC01E05DFF4FA591B491611109C09C
:1001C0009FB7F8948881209582238883EC912E2311
:1001D0000BC0623061F49FB7F8943881822F80950C
:1001E00083238883EC912E2B2C939FBF06C08FB75F
:1001F000F894E8812E2B28838FBFDF91CF9108954B
:10020000089582E06ADF019731F49091B80081E0AF
:1002100089278093B8000895CF93DF93D82FC62FF6
:1002200061E083E082DF61E084E07FDF61E085E020
:100230007CDF61E086E079DF61E087E076DF61E026
:1002400088E073DF61E089E070DF61E08AE06DDF04
:10025000D23051F0D33099F0D130D1F461E08BE05D
:1002600064DF60E08CE008C060E08BE05EDF61E0AE
:100270008CE05BDF60E08AE058DF60E007C060E0B0
:100280008BE053DF60E08CE050DF61E08DE04DDF1C
:1002900088E0C89FE0011124C859DF4F688183E0DE
:1002A00044DF698184E041DF6A8185E03EDF6B8164
:1002B00086E03BDF6C8187E038DF6D8188E035DFE9
:1002C0006E8189E0DF91CF9130CF1F920F920FB6F0
:1002D0000F9211242F933F938F939F93AF93BF93CC
:1002E0008091CC009091CD00A091CE00B091CF0034
:1002F0003091CB0026E0230F2D3720F40296A11D6C
:10030000B11D05C029E8230F0396A11DB11D20933F
:10031000CB008093CC009093CD00A093CE00B093FF
:10032000CF008091C7009091C800A091C900B09102
:10033000CA000196A11DB11D8093C7009093C8000B
:10034000A093C900B093CA00BF91AF919F918F91C4
:100350003F912F910F900FBE0F901F9018951F92F5
:100360000F920FB60F9211242F933F934F935F93E9
:100370006F937F938F939F93AF93BF93EF93FF936D
:10038000E0916200F09163000995FF91EF91BF91B8
:10039000AF919F918F917F916F915F914F913F911D
:1003A0002F910F900FBE0F901F9018951F920F92D4
:1003B0000FB60F9211242F933F934F935F936F9338
:1003C0007F938F939F93AF93BF93EF93FF93E091AE
:1003D0006000F09161000995FF91EF91BF91AF919D
:1003E0009F918F917F916F915F914F913F912F914D
:1003F0000F900FBE0F901F901895789483B782606E
:1004000083BF83B7816083BF89B7816089BF1EBC0A
:100410008EB582608EBD8EB581608EBD8FB58160D8
:100420008FBD85B5846085BD85B5806485BD329AF4
:10043000319A3098379A1AB861E083E0A5DE61E01E
:1004400084E0A2DE61E085E09FDE61E086E09CDE84
:1004500061E087E099DE61E088E096DE61E089E0B6
:1004600093DE61E08AE090DE61E08BE08DDE61E0AA
:100470008CE08ADE61E08DE087DE60E080E084DE93
:1004800060E082E081DE61E081E07EDE81E091E09B
:10049000909361008093600085B78C7F816085BFF9
:1004A0008BB780648BBF9FE088E10FB6F894A89566
:1004B00081BD0FBE91BD80E4382E88248A9493E0DC
:1004C000992EA12CB12C23E0422E512C38EE632E14
:1004D00033E0732E04E610E04AE0E42EF12C50E005
:1004E000C52E50E0D52E8091C5009091C600019692
:1004F0009093C6008093C5001092C4001092C30070
:1005000037B8369A3699FECF24B185B130E0382B12
:100510003093C4002093C300C091C100D091C200A9
:10052000AAE4B1E0BBD0A50194017AD0BA01A90137
:100530004C0F5D1F611D711DCA015093C200409395
:10054000C1002091C5003091C6002432310508F465
:100550003EC0B20151D0EB016496D093C000C0936D
:10056000BF00CE01B30148D07093BE006093BD00C0
:10057000B80142D07093BC006093BB00CE01B801BB
:100580003BD0B70139D07093BA006093B90080E0D6
:10059000A4DD892B21F4C13684E0D80750F180E036
:1005A0009CDD019719F4CD3DD54018F16091B8005C
:1005B00081E0BBDD1092C6001092C5001092C2000F
:1005C0001092C1001092C0001092BF00A8956091D7
:1005D000BD0081E021DE6091BB0082E01DDE609104
:1005E000B90083E019DEC114D10409F47CCF08DD21
:1005F0007ACF1092B800DACFAA1BBB1B51E107C01B
:10060000AA1FBB1FA617B70710F0A61BB70B881FA2
:10061000991F5A95A9F780959095BC01CD01089531
:10062000052E97FB16F400940FD057FD05D014D07B
:1006300007FC02D046F408C05095409530952195AE
:100640003F4F4F4F5F4F08959095809570956195FE
:100650007F4F8F4F9F4F0895A1E21A2EAA1BBB1BFD
:10066000FD010DC0AA1FBB1FEE1FFF1FA217B3077E
:10067000E407F50720F0A21BB30BE40BF50B661F94
:10068000771F881F991F1A9469F760957095809558
:1006900090959B01AC01BD01CF010895A29FB001CF
:1006A000B39FC001A39F01D0B29F700D811D112483
:0806B000911D0895F894FFCF9D
:1006B800000100010100000000000000000001012D
:1006C8000100000101010101000001000001000119
:1006D800000000000101000101000001010000010B
:1006E80000010000010000010001000000000001FD
:1006F80000000001010101010000000000000001EC
:080708000000000001000001E7
:00000001FF
